:020000040800F2
:1080000000800020B9F80108ED830008F183000822
:10801000F5830008F9830008FD83000800000000D4
:1080200000000000000000000000000001840008C3
:1080300005840008000000000984000809F901080F
:1080400009F9010809F9010809F9010809F9010804
:1080500009F9010809F9010809F9010809F90108F4
:1080600009F9010809F9010809F9010809F90108E4
:1080700009F9010809F9010809F9010839A50008F9
:1080800009F9010809F9010809F9010809F90108C4
:1080900009F9010809F9010809F9010809F90108B4
:1080A00009F9010809F9010809F9010809F90108A4
:1080B00009F9010809F9010809F9010809F9010894
:1080C00009F9010809F9010809F9010809F9010884
:1080D00009F9010809F9010809F9010809F9010874
:1080E00009F9010809F9010809F9010809F9010864
:1080F00009F9010809F9010800000000000000006A
:10810000000000000000000009F9010809F9010859
:10811000000000000000000009F9010809F9010849
:1081200009F9010809F9010809F9010809F9010823
:1081300009F9010809F9010809F9010809F9010813
:1081400009F9010800000000000000000000000024
:10815000000000000000000000000000000000001F
:10816000000000000000000009F9010809F90108F9
:1081700009F901080000000009F9010800000000E9
:1081800009F90108000000000000000000000000E4
:1081900010B5054C237833B9044B13B10448AFF341
:1081A00000800123237010BD900300200000000018
:1081B0009081000808B5064B1BB106480649AFF38D
:1081C00000800648036813B1054B03B1984708BD0A
:1081D000000000009081000894030020900300201C
:1081E00000000000704700BF704700BF104AC0F891
:1081F000802FC0F82C2FC0F8882EC0F8782CC0F83B
:108200002C2BC0F81C29C0F8F827C0F81827C0F894
:108210009826C0F85425C0F80C24C0F88823C0F86C
:108220005023C0F80022C0F848210260704700BF08
:10823000B8F90108704700BF704700BF2DE9F04F43
:108240005F4C87B00546029117F006F8204601F012
:1082500085FD2278052A19D05A4E029900912B46A5
:1082600030465949594A02F0C1FED6F8C83FC4F811
:108270009831574CE569AB0605D5A68C5048F1B24C
:1082800002F028F8208507B0BDE8F08F029800F1D1
:10829000FF3A0028EDD04F4F3C6803941AF00302D8
:1082A00005F104006FEA040300F08780039D1E0CB3
:1082B0004FEA1548A3F1881905F1881C012A20F816
:1082C000046C20F8028C0AF1FF3AA9F508430CF57A
:1082D000084400F1040070D0022A11D04FEA134B79
:1082E000210CA3F1881E04F1881720F804BC20F8A3
:1082F000021C0AF1FF3AAEF5084307F508440430C2
:1083000004F188151E0C220CA3F188130AF1FF3822
:1083100005F5084920F8022C20F8046CA3F5084361
:1083200004304A46474611E029F804BC29F802AC5B
:1083300026F8044B059D049C26F8028C043F10305F
:108340002CF8044C2CF8025C73440A44224E234D52
:10835000A3F1881E02F188117644AEF5084A01F5B2
:108360000849360C0D444FEA134B140CAAF1881837
:108370002D0C049609F1881620F804BC20F8024C54
:108380000595A8F5084406F508454FEA1A4B4FEA4B
:10839000194A00F1040900F10C0C114B114A240C8C
:1083A0004FEA15484E46002FBED10F4B0298039A54
:1083B000084903FB00270F605BE722465746C5E7E5
:1083C000AC0300204C050020F45700201C5800206E
:1083D00000480040F0570020F066EEFE10991101B1
:1083E00068DE65FE98219A0188888800704700BF82
:1083F000FEE700BFFEE700BFFEE700BFFEE700BFED
:10840000704700BF704700BF704700BFFEE700BF66
:1084100000B54FF4004187B04FF0006016F02CFF1C
:1084200045F2555016F00CFF022016F00FFF174AC8
:10843000174803924FF4804302A9029205930493D4
:1084400002F05CFC1348019001994A1E0192002938
:10845000FAD1114800F0BCF810B9104802F0A8F9A0
:108460000D4B0F480F49104A00F0A0FD0C220F4899
:108470004BF6803102F040F80C480D4902F054F8F8
:1084800016F0F2FE07B05DF804FB00BFF017002005
:108490004C05002040420F006C170020A016002061
:1084A000AC030020F45700201C580020A416002024
:1084B0003D82000808B5FFF7ABFFFEE72DE9F84F56
:1084C000284C294929482A4F2A4E2B4DDFF8ECB079
:1084D000DFF8ECA0DFF8EC90DFF8EC80224617F034
:1084E00015FA22462549264817F010FA2246254952
:1084F000254817F00BFA22462449254817F006FABA
:10850000244B254AC3F81C79244F254825491A6075
:10851000C3F84861C3F80052234E244DC3F82C7BA6
:10852000DFF8A8C0224FC3F888032246214CC3F8C5
:108530000C14C3F850B31846C3F854A5C3F8989662
:10854000C3F81887C3F8F8C7C3F8787CC3F8886EF7
:10855000C3F82C5FC3F8804F1749BDE8F84F17F0F8
:10856000D5B900BF00000020E5810008A416002056
:1085700050BB0308E0B80308B8B90308E981000854
:10858000A0160020358200086C17002039820008F0
:10859000AC0300204C050020C8B8030868BB0308E2
:1085A000C0BA0308D8BA0308B0BB0308C8BB0308A5
:1085B00080BB0308E0BB0308ED81000898BA0308FC
:1085C000F0BA030808BB030820BB030838BB030844
:1085D0002DE9F04F00238021FF22DFF850E380F8DF
:1085E000721080F87320044680F8703080F8713083
:1085F00080F87430DEF80080C64DDFF850C3DFF835
:1086000078A3DFF87893C4492560C44DC44FC54EA4
:10861000C548DFF86CB3C4F804A0002243F25F5AE7
:10862000C4F80C90A56245F29B3904F17005A16471
:10863000E0454FF27F4183B0A467A4F850A0C4F88E
:1086400054B0A4F85C902381A382A385E5672761D9
:10865000E761A26162622263E26321842187A4F858
:10866000441066632664E064A06500F0088116F09B
:1086700063FBAE4816F002FCAD4816F0FFFBAD48B8
:1086800016F0FCFBAC4816F0F9FBAC4816F0F6FB14
:10869000AB4816F0F3FBAB4816F0F0FBAA4816F017
:1086A000EDFBD4F87880702508EB050B4346ADF858
:1086B000045000219C469F781CF8019BDE789CF8B2
:1086C00000A093F804E05A79987949441AFA81F1A4
:1086D00017FA81F5083316FA85F71EFA87F612FAAB
:1086E00086FC13F8019C10FA8CF219FA82F05B45B3
:1086F00081B2DFD1CD43C24694498C48ADF80650D3
:1087000016F0DAFB01999248924E16F0D5FB5AF812
:10871000041B9148C8EB0B08A8F1040716F0CCFB2A
:10872000D345C7F3820571D0002D38D0012D2DD04F
:10873000022D25D0032D1DD0042D15D0052D0DD0D3
:10874000062D05D030465AF8041B844E16F0B4FBB3
:1087500030465AF8041B16F0AFFB043630465AF880
:10876000041B16F0A9FB043630465AF8041B16F019
:10877000A3FB043630465AF8041B16F09DFB043662
:1087800030465AF8041B16F097FB04365AF8041BBF
:10879000304616F091FBD34506F1040636D0D0469C
:1087A000304658F8041B06F1040916F085FBDAF888
:1087B0000410484616F080FBD8F8041006F10800B3
:1087C00016F07AFBDAF80C1006F10C0016F074FBC8
:1087D000DAF8101006F1100016F06EFBDAF814103B
:1087E00006F1140016F068FBDAF8181006F118000C
:1087F00016F062FB0AF1200A5AF8041C06F11C006C
:1088000016F05AFBD34506F12006C8D1E56F54494E
:1088100095F801B095F800A095F802C095F803E02E
:108820002F796B79AE79EA794E48DA44D444E6443C
:1088300077443B4433441A44D7434FF00808ADF81B
:108840000670ADF8048016F037FB0199464816F023
:1088500033FB2968454816F02FFB6968444816F039
:108860002BFB0220A4F88000002094F870100F2940
:1088700002D90F2584F8705003B0BDE8F08FBEF820
:108880000470702F7FF4F3AE334A934692F802C01F
:108890001BF801AB92F803E09BF8008092F804907B
:1088A000907956792F49534418FA83F31CFA83F7C9
:1088B0001EFA87FB083219FA8BFC16FA8CFA12F8AA
:1088C000016C10FA8AFE16FA8EF08A4283B2DCD16D
:1088D0001649DF43B1F80680BAB290457FF4C7AEBF
:1088E000702220461C4917F04DF80122A4F8802080
:1088F000204B4FEA0219002A44D04B44184E186806
:10890000B04244D0B4F88020012A3FF4B0AE012038
:10891000ABE700BFCDCCCC3CCDCCCC3E000080BF83
:10892000000070C2CDCCCCBF9A9919BF004000089E
:1089300000480008005000080058000800600008C7
:1089400000680008007000080078000843414C49A6
:10895000044000080C4000080840000810400008CF
:1089600053544154784000087C400008804000087F
:1089700084400008684000080AD783BF14AECD4188
:1089800048E1FA3E1C4B1D4E1868B042BAD1998896
:108990000829B7D193F808B093F809A093F80AE032
:1089A00093F80BC01F7B93F80D809A7B93F80F9080
:1089B000DE88DA44D644F4446744B84442444A4426
:1089C00082F47F4080F0FF018E4203F1080399D1C9
:1089D00003CB28606960B4F880B0094F094E0BF1F1
:1089E000010A1FFA8AF24FEA021E7744B742A4F83E
:1089F00080207FF67DAF87E7004000085354415444
:108A000078400008008000082DE9F04383B0074655
:108A100016F092F97E4816F031FA7E4816F02EFADA
:108A20007D4816F02BFA7D4816F028FA7C4816F09F
:108A300025FA7C4816F022FA7B4816F01FFA7B488C
:108A400016F01CFAD7F87880702208EB020643462D
:108A5000ADF804200021184693F802E010F8019BBD
:108A6000DD7890F800C01C795A79987949441CFA4D
:108A700081F11EFA81FE083315FA8EF514FA85F499
:108A800012FA84F913F801CC10FA89F21CFA82F078
:108A9000B34281B2DFD1CD43444665495C48ADF86D
:108AA000065016F009FA01996248634D16F004FA6F
:108AB000C8EB060854F8041B6048A8F10403C3F38C
:108AC000820916F0F9F9B44272D0B9F1000F3ED024
:108AD000B9F1010F32D0B9F1020F29D0B9F1030F6A
:108AE00020D0B9F1040F17D0B9F1050F0ED0B9F1AC
:108AF000060F05D0284654F8041B514D16F0DCF93A
:108B0000284654F8041B16F0D7F90435284654F8C3
:108B1000041B16F0D1F90435284654F8041B16F04E
:108B2000CBF90435284654F8041B16F0C5F9043572
:108B3000284654F8041B16F0BFF9043554F8041BFA
:108B4000284616F0B9F9B44205F1040530D0A04624
:108B5000284658F8041B05F1040916F0ADF96168C0
:108B6000484616F0A9F9D8F8041005F1080016F0E7
:108B7000A3F9E16805F10C0016F09EF9216905F1F1
:108B8000100016F099F9616905F1140016F094F9D6
:108B9000A16905F1180016F08FF9203454F8041C6F
:108BA00005F11C0016F088F9B44205F12005CED17C
:108BB000FC6F244994F8009094F801E094F8028046
:108BC00094F803C025796679A379E2791E48CE44EA
:108BD000C644E644754435442B441A44D54308261C
:108BE000ADF80650ADF8046016F066F90199174823
:108BF00016F062F92168164816F05EF961681548AA
:108C000016F05AF90220A7F8800003B0BDE8F083FF
:108C10000040000800480008005000080058000804
:108C20000060000800680008007000080078000874
:108C300043414C49044000080C400008084000082B
:108C40001040000853544154784000087C4000080C
:108C500080400008844000082DE9F043B0F88010FF
:108C6000AA4BAB4A074608010344934283B040F243
:108C7000008116F061F8A74816F000F9A64816F032
:108C8000FDF8A64816F0FAF8A54816F0F7F8A5483A
:108C900016F0F4F8A44816F0F1F8A44816F0EEF82F
:108CA000A34816F0EBF8D7F87880702108EB01069E
:108CB000ADF8041043460021184693F802E010F87E
:108CC000019BDD7890F800C01C795A799879494465
:108CD0001CFA81F11EFA81FE083315FA8EF514FA9A
:108CE00085F412FA84F913F801CC10FA89F21CFA0F
:108CF00082F0B34281B2DFD1CD4344468D498548ED
:108D0000ADF8065016F0D8F801998B488B4D16F047
:108D1000D3F8C8EB060854F8041B8948A8F10403EB
:108D2000C3F3820916F0C8F8B44272D0B9F1000F4B
:108D30003ED0B9F1010F32D0B9F1020F29D0B9F10B
:108D4000030F20D0B9F1040F17D0B9F1050F0ED0E1
:108D5000B9F1060F05D0284654F8041B794D16F0DA
:108D6000ABF8284654F8041B16F0A6F8043528463C
:108D700054F8041B16F0A0F80435284654F8041BD8
:108D800016F09AF80435284654F8041B16F094F8A7
:108D90000435284654F8041B16F08EF8043554F8B0
:108DA000041B284616F088F8B44205F1040530D0BB
:108DB000A046284658F8041B05F1040916F07CF873
:108DC0006168484616F078F8D8F8041005F10800F4
:108DD00016F072F8E16805F10C0016F06DF82169E3
:108DE00005F1100016F068F8616905F1140016F03D
:108DF00063F8A16905F1180016F05EF8203454F804
:108E0000041C05F11C0016F057F8B44205F12005CA
:108E1000CED1FC6F4C4994F8009094F801C094F8BE
:108E2000028094F803E025796679A379E2793748DE
:108E3000CC44C444E644754435442B441A44D543D9
:108E40000826ADF80650ADF8046016F035F8019923
:108E50003E4816F031F821683D4816F02DF861685B
:108E60003C4816F029F80220A7F8800003B0BDE8BE
:108E7000F08315F061FFFC6FB7F8803094F8018043
:108E800094F800C094F802E0E678257994F805900B
:108E9000A279E179C444E64476443544A9444A447D
:108EA0001144C8430826ADF80600ADF804600BB3C2
:108EB000013B16482449274D4FEA0318404415F05A
:108EC000FBFF22480199404415F0F6FF08F1006CC1
:108ED0000CF581404544216815F0EEFF6168284695
:108EE00015F0EAFFB7F88040621CA7F8802003B0B5
:108EF000BDE8F08314490748104D15F0DDFF0E481A
:108F0000019915F0D9FF0E48E5E700BF7840000849
:108F100000800008004000080048000800500008D9
:108F20000058000800600008006800080070000891
:108F30000078000843414C49044000080C400008F8
:108F40000840000810400008535441547C40000879
:108F50008040000884400008D0F86831426F93F8E0
:108F60007010D16193F871C0DFED0F7A07EE10CA6F
:108F7000B8EE470A60EE270AC2ED090A93F87210AC
:108F800001EE101AF8EE411A21EEA72A82ED082A06
:108F900093F8733002EE903AB8EE623A63EE273AF5
:108FA000C0ED1C3A704700BF0000803B2DE9F04F38
:108FB00004468267C0F8683183B0616704300E46AA
:108FC00001F0EEFA04F1340001F05AFD04F144001E
:108FD00001F02EFC04F1640001F04AFE002320465B
:108FE000A3662370FFF7B8FF9848402116F00AF9EE
:108FF00070B9D4F8681191F87420012A16BF0122C3
:1090000081F8740081F87420D4F86801FFF724FE19
:1090100006F1040E04F16C0C002500238C4AC4F800
:1090200084C04FF080474FF07E5B06F1140C06F1D0
:10903000080906F10C0006F1200104F1700A06F19E
:109040002408C4F8A4E006F1100E1836C4F88C30D9
:10905000C4F89030C4F89430C4F8AC30C4F8B030E0
:10906000C4F8B430C4F8BC30C4F8CC30C4F8D03044
:10907000C4F8D430C4F8DC30C4F8EC30C4F8F030B4
:10908000C4F89C20C4F89870C4F8A8A0C4F8B8B07C
:10909000C4F8D8B0C4F8C490C4F8E400C4F8E81028
:1090A0004FF40030012184F8805084F88150C4F8D6
:1090B000885084F8A05084F8A15084F8C05084F8F7
:1090C000C15084F8E05084F8E150C4F8C880C4F876
:1090D000F430C4F8F8B0C4F8FC30C4F80C31C4F86B
:1090E0001031C4F81431C4F81871C4F81C21C4F844
:1090F0002C31C4F83031C4F83431C4F83871C4F8B4
:109100003C21C4F84C31C4F85031C4F85431C4F88F
:109110005871C4F85C21C4F804C1C4F824E1C4F84F
:10912000446102AF84F8005184F80151C4F8085139
:1091300084F8205184F82151C4F8285184F8405112
:1091400084F84151C4F84851C4F86C51C4F88451B2
:1091500016F0A2F902264FF4007301224FF090405E
:10916000694647F8083D8DF805608DF806508DF882
:1091700007508DF8042015F0D3FE04F5CA7004F5ED
:10918000CB7B6FEA000A04F29519DA44D945C4F89A
:1091900070510AF00707C4F874512E46C4F878518C
:1091A000C4F87C51C4F88051C4F88851C4F88C517B
:1091B000C4F8905184F894513CD02FB3012F1ED0A5
:1091C000022F18D0032F12D0042F0DD0052F08D056
:1091D000062F1CBF89F8005004F5CB79002509F84B
:1091E000015B002109F8011B002309F8013B4FF046
:1091F000000809F8018B4FF0000C09F801CB00269C
:1092000009F8016BD94515D04846002200F8012B1A
:1092100009F1080909F8072C427009F8052C09F82A
:10922000042C09F8032C09F8022C09F8012CD94563
:109230001646E9D10027C4F89861C4F89C71C4F8B7
:109240006071C4F8647103B0BDE8F08F0004004899
:10925000000080BF426FD0F86831D16983F8701088
:10926000426FDFED127A92ED097A27EE270AFCEEC3
:10927000C00A10EE901A83F87110426F92ED081A2E
:1092800061EE271ABCEEE12A12EE101A83F8721072
:10929000D0ED1C2A22EEA73AFCEEC33A13EE90CA98
:1092A00083F873C0D0F86801FFF7D6BC0000804394
:1092B0002DE9F843044600F14405284601F03EFB41
:1092C000D4F8882121780132C2F304130F2BC4F89B
:1092D000882102F00F00C8BFC3F11F03062930D850
:1092E000DFE811F007007E0141007F0089008E0059
:1092F0003400D4F8687197F87460012E00F006828B
:109300004FF47F084FF47F41D4F8982102F0070C06
:1093100012F0080F04EB8C0E0CBF0F464746834239
:10932000CEF844700DDD636FD86900F0070604EBDA
:10933000860410F0080F626C08BF884642EA0801F4
:1093400061642846BDE8F84301F008BB8342F8DDBC
:109350004FF47F066664A664E66426656665A665C6
:10936000E6652666EDE794ED1C7AF2EE047A27EEC8
:10937000270A5B10FDEEC00A10EE902A002A68D082
:10938000092A934B00F0B881012A0CBF99464FF08F
:109390000009022A14BF4FF000089846032A14BFA0
:1093A0004FF0000C9C46042A14BF00271F46052AD4
:1093B00014BF00261E46062A14BF00201846072A9E
:1093C00014BF00211946082AC4F86090C4F85C80D4
:1093D000C4F858C067652665E064A16418BF00231F
:1093E00003E08342ADDD4FF47F4363642846BDE86C
:1093F000F84301F0B3BA8342A3DD754B6364A0E781
:10940000744F4FEAA22887FB0871A1EBE27909EBC0
:10941000490C8342CCEB080243DA002A00F0578162
:10942000012A00F089819F1C07F00F0E4FF47F0185
:109430007045616442DC00261F1D07F00F0E704569
:10944000A6646BDD002A00F05481012A3FD1604EF2
:1094500065E0002B00F058815D4F2766012B00F07E
:1094600069815B4EE665022B00F062815848A06579
:10947000032B00F05B8156496165042B00F0548199
:10948000534F2765052B00F04D81514EE664062BA6
:1094900000F046814E4AA264072B00F03F814C4BFE
:1094A000A3E700269F1C07F00F0840456664C2DD55
:1094B000002A00F00981012A00F0408103F104092B
:1094C00009F00F0C4FF47F016045A16426DD03F124
:1094D000060808F00F094FF47F014845E1642BDDD1
:1094E00003F1080E0EF00F084FF47F01404521658F
:1094F00031DD03F10A0C0CF00F0E4FF47F017045C3
:10950000616537DD03F10C0909F00F0C4FF47F01A1
:109510006045A16545DD4FF47F0643E000269F1DB1
:1095200007F00F0C6045E66406DD002A00F0DE80DF
:10953000012AD5D1264E00E0002603F1080707F0E6
:109540000F094845266506DD002A00F0CC80012A77
:10955000CFD11F4E00E0002603F10A0707F00F08E5
:109560004045666506DD002A00F0BA80012AC9D1AF
:10957000174E00E0002603F10C0707F00F0E7045B0
:10958000A6650EDD002A00F0A880012AC3D103F1F0
:109590000E0202F00F070E4EE665B84210DD0C48D1
:1095A0000FE000260E3303F00F018842E66507DD69
:1095B000002A00F08F80012AF1D04FF47F0000E0F4
:1095C000002020662846BDE8F84301F0C7B900BF77
:1095D00000FFFF00565555556F12833A0000804238
:1095E000636F1FED036A93ED091A93ED085A5FED5F
:1095F000051A534B31EE462AF5EE006A72EE665AB2
:1096000004EE900A35EEE63A75EE462AF8EEE47A74
:1096100022EE214A65EEA13A32EEE60A33EE667A90
:10962000F4EEC47A63EE210AF1EE10FA27EE211A65
:10963000F4EEE37A30EE666A4CBF9E464FF0000EC1
:1096400022EEA15AF1EE10FAF4EEE07A4CBF994600
:109650004FF0000920EE212AF1EE10FA76EE666A4C
:10966000B4EEE71A4CBF1F46002766EE215AF1EE12
:1096700010FAB4EEE75ACCBF1E46002666EEA11AD9
:10968000F1EE10FAB4EEE72ACCBF18460020F1EE56
:1096900010FAF4EEE75ACCBF19460021F1EE10FAA9
:1096A000F4EEE17ACCBF1A460022F1EE10FA58BF70
:1096B0000023C4F850E0C4F84C90A76466642066A8
:1096C000E1656365A2653CE64FF47F46B4E64FF47E
:1096D0007F46E7E64FF47F4073E74FF47F4661E74C
:1096E0004FF47F4647E74FF47F4635E74FF47F4618
:1096F00023E74FF47F4612E72366E365A3656365BE
:109700002365E364A36470E62366AAE60C4912F0BD
:10971000070F0CBF88464FF00008F5E5002364E60C
:10972000A264BCE6E264B5E62265AEE66265A7E641
:10973000A265A0E6E26599E6014EB3E6004E7BE63F
:1097400000FFFF00C368D0F86821D0F88411F0B49E
:1097500000EB4304B2F92050B4F92470BD424FEA43
:10976000D176D4BF00270127B74204D0D0F870319A
:109770005D1CC0F870514469B2F9387000EB440CBC
:10978000BCF924309F42D4BF00230123B34204D04C
:10979000D0F874516C1CC0F874418769B2F9443038
:1097A00000EB470CBCF92450AB42D4BF0025012587
:1097B000B54204D0D0F87841671CC0F87871C3690D
:1097C000B2F950C000EB4305B5F92440A445D4BF1D
:1097D00000240124B44204D0D0F87C717B1CC0F872
:1097E0007C31046AB2F95CC000EB4402B2F9245047
:1097F000AC45D4BF00250125B54204D0D0F8806126
:10980000771CC0F88071D0F86C315C1C202CC0F83B
:109810006C4111D0294F07FB01F101F5405606F1CB
:109820003905002DC0F8845140DB4FF090404FF4D3
:1098300000740485F0BC7047D0F87031D0F87471B2
:10984000D0F87861D0F87C51D0F88041826F012B3C
:10985000D4BF4FF0000C4FF0010C012FD4BF0027F4
:109860000127012ED4BF00260126012DD4BF0025DB
:109870000125012C4FF00003D4BF00240124C0F8BF
:109880006C3182F820C0C0F8703182F82170C0F8C5
:10989000743182F82260C0F8783182F82350C0F821
:1098A0007C3182F82440C0F88031B3E74FF0904C0F
:1098B0004FF40072CCF81820F0BC70476D4EC641D2
:1098C00030B4D0F86821051D0121002302E00133E6
:1098D00001310C32012BFAD055F8234092ED017A78
:1098E00000EB440C0829BCF9244007EE904AFAEE3C
:1098F000E87A27EEC70A82ED000AE8D1D0F86421A1
:10990000C0F89C210423037030BC704790ED677A47
:10991000D0ED597ADFED226A10B537EEC70A82B072
:10992000B4EEE60AF1EE10FA044606DDDFED1D0A9C
:10993000B4EEE00AF1EE10FA1ED4062323704FF4C1
:109940000030012115F0A8FD02AA4FF40074002395
:1099500042F8084D4FF0010C022269464FF090404A
:109960008DF804C08DF806308DF807308DF805208D
:1099700015F0D6FA02B010BDB3EE081AC1EE001A07
:10998000D0F868110846B2EE082AA7EE612AC1EDA8
:10999000041A81ED032AFFF737F800202070CEE784
:1099A0009A9919BFCDCC4CBE70B5044682B06430D4
:1099B00001F088F92378062B36D8DFE803F0480455
:1099C00004A0BA37370094F864607F2E00F06281FB
:1099D00094F865007F2827D194F8C010022900F080
:1099E000AB8194F8C150002D40F0A68184F8C0509E
:1099F00094F8E060022E00F09B8194F8E130002B97
:109A000040F0968184F8E03094F8A010022900F02C
:109A10008B8194F8A150002D40F0868184F8A050ED
:109A20000026C4F89061267002B070BD94F86400FE
:109A3000802800F0688194F86550802DF4D10026CC
:109A40000123C4F89061267084F89531ECE794F80E
:109A50006430802B00F08F80002B40F08F80D4F892
:109A60008C01421CC4F88C2194F8651080297BD0AD
:109A700000297CD1D4F89051681CC4F89001802B47
:109A800000F0D98094F8E050802994F8A01000F0FC
:109A9000BD80022D76D094F8C050022D72D00229DC
:109AA00008BF2170B2F5FA6F04DBB0F5FA6F78DA0F
:109AB000002871D0B0F5FA6F01DB002A65D07F2B4A
:109AC00000F00B8194F865207F2AADD194F89501C0
:109AD0000028A9D1656F84F8C000EB6984F8E00024
:109AE000072B84F8A00000F38A8003F0070E0EF124
:109AF0000802EA612046FFF7ADFB02B070BD94F8A2
:109B00006430802B00F0258194F8650080288BD18B
:109B10004FF0010C0CF1620104EB810EA44400250E
:109B20000122CEF8045020468CF89421FFF7C8FE9D
:109B30007AE794F86400802800F0088194F86510B2
:109B400080297FF471AF4FF0010C0CF1620204EB3D
:109B5000820EA44400250126CEF8045020468CF83D
:109B60009461FFF7D3FE5FE7002684F8956100203B
:109B7000C4F8900183E7002184F894110022C4F80E
:109B80008C2171E70126267089E70221C4F8902113
:109B9000C4F88C21217092E70125C4F88C0125704E
:109BA0008DE7002502AA03204FF400732070694658
:109BB0004FF09040C4F89051C4F88C5184F8C050D4
:109BC00084F8E05084F8A050022642F8083D8DF851
:109BD00004508DF806508DF807508DF8056015F08B
:109BE0009FF9D4F88C21D4F8900194F86430B2F540
:109BF000FA6FFFF65FAF00287FF45CAFCCE7591C2B
:109C000001F0070C0CF10806EE6173E74E1EF6B288
:109C1000012E7FF63EAFD4F8A860002E3FF439AF96
:109C20000339D1F1000C5CEB010E012184F8A1E0B5
:109C300084F8A0102DE794F8C0C00CF1FF35EEB207
:109C4000012E0DD9D4F8C85055B1BCF1030EDEF188
:109C5000000656EB0E0C012584F8C1C084F8C050F4
:109C600094F8E05005F1FF3E5FFA8EF6012E7FF684
:109C70000BAFD4F8E860002E3FF406AFB5F1030C4B
:109C8000DCF1000555EB0C0E012584F8E1E084F8C9
:109C9000E050F9E694F8C030022B02D094F8C100ED
:109CA00000B1032094F8E01084F8C000022902D02B
:109CB00094F8E15005B1032594F8A02084F8E05011
:109CC000022A02D094F8A16006B10326002384F88A
:109CD000A060C4F88C3123707AE694F89461002E69
:109CE0007FF4F0AE626F84F8C060D06984F8E06001
:109CF000072884F8A0600EDD00F00706D661204634
:109D0000FFF7A8FADEE600210122C4F88C112170C9
:109D100084F894218FE6104B00F1010C0CEA030546
:109D2000002D0DDBD561EAE7032284F8A02077E659
:109D3000032084F8E00067E6032284F8C02057E699
:109D4000691E61F0070E0EF10105EBE74FF0000C04
:109D5000FBE64FF0000CDDE607000080D0ED237A33
:109D6000DFEDD36A9FEDD37A2DE9F0410446808E72
:109D700094F8803006EE100AB8EEC60AB0EE674AD4
:109D800090EE264AE4EE077AC4ED237A4BB994EDBF
:109D9000261AD4ED271AD4F88410E7EE811AC1ED03
:109DA000001AE28ED4ED2B2A9FEDC13ADFEDC13AC5
:109DB00094F8A05002EE102AF8EEC24AB0EE625AB1
:109DC00094EE835AE5EE232AC4ED2B2A4DB9D4ED47
:109DD0002E7A94ED2F6AD4F8A460A2EEA76A86EDDD
:109DE000006A278FD4ED330ADFEDB16A9FEDB17AB7
:109DF00094F8C00000EE107AB8EEC01AB0EE604AD7
:109E000091EE264AE4EE070AC4ED330A48B994ED10
:109E1000362AD4ED372AD4F8C430E0EE822AC3EDD6
:109E2000002A618FD4ED3B3ADFEDA14A9FEDA15AA4
:109E300094F8E02003EE101AF8EEC35AF0EE637ABD
:109E4000D5EEA47AE7EE853AC4ED3B3A4AB994EDF3
:109E50003E0AD4ED3F0AD4F8E450E3EE800AC5EDA3
:109E6000000AA68FD4ED431ADFED916A9FED917A37
:109E700094F8007101EE106AB8EEC12AB0EE614AA2
:109E800092EE264AE4EE071AC4ED431A4FB994ED58
:109E9000463AD4ED473AD4F80401E1EE833AC0EDF6
:109EA000003AE38F94ED4B5ADFED815ADFED817A72
:109EB00094F8201104EE903AB8EEE46AB0EE450A48
:109EC00096EE250AA0EE275A84ED4B5A49B994ED37
:109ED0004E1AD4ED4F1AD4F82421E5EE011AC2ED42
:109EE000001AB4F84050D4ED532ADFED716A9FEDAB
:109EF000717A94F8406102EE105AB8EEC23AB0EEB0
:109F0000624A93EE264AE4EE072AC4ED532A4EB97C
:109F1000D4ED564A94ED575AD4F84471A2EEA45A9F
:109F200087ED005A6768A668D4F86831DFED627A79
:109F300093ED010AD3ED000AE568A26F9FED621A66
:109F4000DFED5E1A5E4904EB470704EB4606B7F9FE
:109F50002470B6F9246006EE107AB8EEC62A05EE33
:109F6000906A62EE272A04EB4505E0EE220A04F12E
:109F7000100898E80151F8EEE54AB5F92470C2EDF1
:109F8000000A93ED044A93ED037A64EEA76A03EEA8
:109F9000907AA4EE267A04EB400004EB4808B8EE71
:109FA000E35AB0F9246082ED017A93ED070AD3ED0C
:109FB000060AB8F9245025EE276A03EE106AE0EE8F
:109FC000060A04EB4C0C04EB4E0EF8EEC32ABCF967
:109FD0002400C2ED020A93ED0A4AD3ED096ABEF9E4
:109FE000247062EEA73A05EE905AE4EE236AB8EECA
:109FF000E50AC2ED036A93ED0D3AD3ED0C0A60EE6B
:10A00000275A02EE100AE3EE250AB8EEC22AC2ED84
:10A01000040AD3ED102AD3ED0F3A22EE276A05EE9B
:10A02000107AE2EE863AB8EEC55AC2ED053A266AD3
:10A0300093ED134AD3ED126A04EB460825EE270A86
:10A04000B8F924C0E4EE006A05EE90CAB8EEE52A3D
:10A05000C2ED066A93ED163AD3ED150AA36E22EE11
:10A06000276A5D1CE3EE060A05EA0107002FC2ED30
:10A07000070AD4ED592AD4ED583AB0EE625A94EE5C
:10A08000A75A77EE634AE5EE012AB0EE631AA4EE12
:10A09000A11AC4ED592A84ED581A82ED011AC0F2B2
:10A0A000F980A766032F22D8DFE807F0E3DF491E17
:10A0B000000080370AD7233C000000383333333F99
:10A0C00003000080C520803FCDCCCC3D00000000C7
:10A0D0000AD7A33B8FC2F53CE17A41C2000040425F
:10A0E000000070426F12833A2046FFF72BFB201DC1
:10A0F00000F044FA04F1340000F0B4FDD4ED1C2A61
:10A10000F2EE043A22EEA35AFDEEC57A17EE902A3B
:10A11000002A00F0B280092A00F0C180B8EEE71AE8
:10A12000B2EE087AD4ED1B6A646F21EE074AB1EEF5
:10A130000C0AA6EE804A84ED004ABDE8F08104F1E5
:10A14000980E07231EF8186C032E0CD8DFE806F0D3
:10A15000077002105EF8105C5EF80C1C29605EF857
:10A160000C5C4EF8045C013B0EF1200EEAD1BEE718
:10A170005EED031A1EED017A1FED2B4A71EEC76AE0
:10A18000B0EEE60AB4EEC40AF1EE10FAEBDDF5EE3D
:10A19000C06AF1EE10FA1EED023A40F38D805FEDD9
:10A1A000372A72EEC73A32EEC35A85EE236A5FED64
:10A1B0003A7AB4EEE76AF1EE10FA08D4F2EE047AD5
:10A1C000B4EE676AF1EE10FAD8BFF0EE467AA6EE6A
:10A1D000A73A5FED424AB4EEE43AF1EE10FA74D4D5
:10A1E000B7EE001AB4EEC13AF1EE10FAD2BF0EED9E
:10A1F000023AB0EE413A0EED021A9EED000ADEED93
:10A20000010A1FED4D4A5EF8140C4EED011A33EEB3
:10A21000617AE0EE030AF0EEC76AF4EEC46AF1EE8A
:10A2200010FA44BF00260EF8186CC0ED000A9AE739
:10A230005EED031A1EED013A1FED5A2A71EEC35A64
:10A24000B0EEE56AB4EEC26AF1EE10FA8BDD5EF8AC
:10A25000107C0EED023AC7ED001A5EF80C6C4EF859
:10A26000046C02200EF8180C7DE72046FFF79CFBDB
:10A270003DE72046FFF71CF839E794ED1B2A5FED18
:10A28000685A1FED6B6A676FA2EE256A87ED006A58
:10A29000BDE8F0817A1E62F003014F1C01E7D4EDA6
:10A2A0001B0A5FED721A1FED723A616FA0EEA13AC0
:10A2B00081ED003ABDE8F0815FED760A37EE202AA5
:10A2C00073EE205A85EE826A71E74EED024AB0EED7
:10A2D000643A92E730B54B1183B0044601F01F0198
:10A2E000052B3FD8DFE803F00D13212A2F03806FE1
:10A2F000014491F8202082F001056B42D8B203B0EE
:10A3000030BD00EB41039C8E200A03B030BD00EB52
:10A31000810CDCF8041000EB4100B0F9245005F585
:10A320000042C2F3072003B030BD014491F86440FD
:10A33000D4F1010038BF002003B030BD79B105234E
:10A3400003700020DBE701292AD00DD3022909D1AF
:10A35000FFF7DCFA2046FEF77DFF0020CFE7017013
:10A360000846CCE70020CAE7406F0DF1080C002535
:10A370004FF400710322C5614CF8081D4FF0020E26
:10A380004FF09040694622708DF804508DF80650C9
:10A390008DF807508DF805E014F0C2FD2846AEE7B1
:10A3A000FFF78EFA0020AAE700B54FF4003083B023
:10A3B000012115F071F802A94FF450634FF0000C21
:10A3C00041F8083D022269464FF090408DF806C0E2
:10A3D0008DF807C08DF804208DF8052014F0A0FD3D
:10A3E0004FF090400821052214F012FF4FF09040EA
:10A3F0000A21052214F00CFF4FF090400B2105229A
:10A4000014F006FF03B05DF804FB00BF30B5114C3B
:10A4100085B00D464FF48040012115F059F82046D3
:10A4200015F0F2F800234FF4007220466946ADF8AB
:10A430000020ADF80230ADF80430ADF80630ADF8CC
:10A440000C30029515F052F92046012115F0BEF9A5
:10A4500005B030BD003800402DE9F043224CDFF854
:10A460009480064601208DB00D46014615F014F883
:10A470002046002114F048FC204614F095FB06F11C
:10A48000080100234FF0100C4FF0800E4FEA8509B1
:10A49000204602914FF4005201A94FF480754FF409
:10A4A00080672026CDF80CC005930B93CDF818E0FB
:10A4B0000A92ADF81090CDF8048007950897099698
:10A4C00014F0F4FB204606210122084C14F02AFC6B
:10A4D0004FF40041216006480221012215F086F95F
:10A4E0000DB0BDE8F08300BF5800024000E100E07D
:10A4F000003800400C38004070B50A4B1546002269
:10A50000044618600E4642600560FFF74DFF204686
:10A510003146FFF77BFF20462946BDE87040FFF734
:10A520009BBF00BF4458002041600248012114F045
:10A53000EBBB00BF5800024008B50E4B1A684FF441
:10A54000C021596091030AD4530300D408BD0A48BE
:10A55000026892E80A0002F10800984708BD064B1D
:10A560001B6893E8060001F1020C03EB8C00904796
:10A5700008BD00BF000002404458002008B505484F
:10A5800015F01EF8044815F01BF80448BDE8084013
:10A5900015F016B8006001400064014000680140F9
:10A5A0002DE9F04F012193B081464FF0805014F017
:10A5B0008FFF4FF40070012114F068FE4FF48060AB
:10A5C000012114F063FE4FF40060012114F05EFEDF
:10A5D0004FF08070012114F06DFF4FF000700121E9
:10A5E00014F068FF01214FF0806014F063FF4FF01A
:10A5F000284014F065FE0220012114F04DFF4FF4B5
:10A600008020012114F048FF4FF48010012114F044
:10A6100043FF01214FF4001014F03EFF634D002072
:10A6200014F0B8FF002703214FF040624FF0804341
:10A6300005F1080405F1B40A8DF80B708DF80A7065
:10A64000049706978DF808100392059354F8080CA8
:10A65000012114F08BFF54F8080C4FF4004114F062
:10A66000CDFF0128F7D0A86800280FDD2E464FF057
:10A670000008318B7069019101A914F051FCAA689E
:10A6800008F10108424506F11006F2DC54F8080C06
:10A69000012114F075FF54F8080C4FF0004114F03C
:10A6A000ADFF0028F7D054F8083CA968ADF8281091
:10A6B00007F1100B03F16002802109EB4B03002628
:10A6C0004FF4806E54F8040C0792089320224FF444
:10A6D00000530C914FF4807807A9CDF838E00F9221
:10A6E000109309960B961196CDF8348014F0DEFA8B
:10A6F00054F8080C314603AA14F014FFA868B042BD
:10A70000B34614DDA84698F80CC058F8103F54F82A
:10A71000080C49F82C70002219464BEA030B14F080
:10A7200013FFAA680136B24207F10107EBDC594674
:10A7300054F8080C14F04AFF54F8080C002114F0E7
:10A7400049FF54F8080C042114F02EFF54F8080CAB
:10A75000002114F015FF54F8080C4FF0004114F0DC
:10A760004DFF0128F7D054F8080C14F023FF54F8DB
:10A77000080C012114F042FF0028F8D054F8040C12
:10A78000012114F0C1FA3C3554F8080C4FF4803123
:10A79000012214F029FF554504F13C047FF456AF23
:10A7A0004846FFF7EBFE13B0BDE8F08F8CB7030807
:10A7B00070B54FF4802088B01B4D1C4E012114F061
:10A7C00087FE4FF48020012114F066FE002402234E
:10A7D00028464FF4407269468DF805308DF80430F4
:10A7E00000928DF806408DF8074014F099FB28463A
:10A7F0000821072214F00CFD28460921072214F035
:10A8000007FD4FF416550C22304602A90692039418
:10A81000049405940794029514F0F4FF3046012146
:10A8200015F040F808B070BD000400480048004032
:10A830002DE9F041012188B005464FF4800014F065
:10A840002BFE4FF40030012114F026FE08AF4FF428
:10A850008050012114F02EFE802347F81C3D002477
:10A8600002264FF00108394632488DF808808DF8ED
:10A8700009608DF80A408DF80B4014F051FB394601
:10A8800040222C488DF808608DF8096001928DF8FF
:10A890000A408DF80B4014F043FB052225480621A1
:10A8A00014F0B6FC39464FF090404FF480578DF8C5
:10A8B00008608DF809608DF80A408DF80B4001970B
:10A8C00014F02EFB4FF090400C21062214F0A0FC57
:10A8D0004FF400764FF4827E4FF4706C38220723D9
:10A8E00003A91548ADF80EE0ADF810C0ADF818207A
:10A8F000ADF81C30ADF80C40ADF81240ADF8144086
:10A90000ADF81A40ADF8166014F0B4FE4146A84602
:10A91000094814F04BFF48F8044B48F8044BC8F8BA
:10A920000040EC602C616C61AC61EC6108B0BDE88A
:10A93000F08100BF001400480030014002460023AF
:10A9400070B442F8043B42F8043B70BC1360C3602F
:10A95000036143618361C361704700BFD0F800C0E9
:10A960008169426903692DE9F0031CF47F0F476890
:10A970008668C568C469DFF800810CBF4FF0000924
:10A980004FF001091CF47F4F0CBF0020022017F488
:10A990007F0F49EA00090CBF0020012017F47F4F08
:10A9A00040EA890C0CBF0027022716F47F0F4CEAFF
:10A9B00007090CBF0020012016F47F4F40EA8907E9
:10A9C0000CBF0026022615F47F0F47EA060C0CBFC9
:10A9D0000020012015F47F4F40EA8C070CBF0025B2
:10A9E000022514F47F0F47EA05060CBF0020012062
:10A9F00014F47F4F40EA86070CBF0024022411F4B0
:10AA00007F0F47EA04050CBF0026012611F47F4F93
:10AA100046EA85090CBF0021022112F47F0F49EAA2
:10AA2000010C0CBF0020012012F47F4F0CBF002747
:10AA3000022740EA8C0213F47F0F0CBF002501258A
:10AA400042EA070413F47F4F45EA84060CBF4FF037
:10AA500000094FF00209802346EA0900C8F81830BF
:10AA600000BF054A4FF08008A2F8288000BF0349C4
:10AA7000BDE8F003888170470014004800300140B1
:10AA80002DE9F043012193B007464FF4007014F014
:10AA900011FD4FF4404014F007FC4FF40030012149
:10AAA00014F0FAFC0120014614F0F6FC00257F2387
:10AAB0004FF003084FF0904001A907240193DFF8FD
:10AAC000A0918DF80B504FF480668DF80A508DF8E8
:10AAD000088014F025FA4FF0800C4FF4807E4FF47C
:10AAE000005320225C48CDF830C007A9CDF834E0EF
:10AAF00010930F92CDF81C900E96089709950B9520
:10AB00001195ADF8284014F0D1F85348012114F004
:10AB1000FBF84FF001094FF400625048059203A979
:10AB20004FF460268DF80D508DF818408DF80C907C
:10AB3000049613F095FF29464A462346474813F0EA
:10AB4000C7FF02210A462346444813F0C1FF41468D
:10AB500042462346414813F0BBFF494623463F483F
:10AB6000042213F0B5FF23463C480621052213F0CA
:10AB7000AFFF234639480521062213F0A9FF2246DC
:10AB800023463648042113F0A3FF3448494613F006
:10AB900089FF324813F096FF304814F001F800287E
:10ABA000FAD12E4813F088FF2C4813F0F5FF002847
:10ABB000FAD12A48012113F0E5FF38464FF400414D
:10ABC00020F8021B0E3787424FF006053ED03DB3FA
:10ABD000012D1FD0022D19D0032D13D0042D0DD01F
:10ABE000052D07D0062D18BF20F8021B4FF4004496
:10ABF00020F8024B4FF4004320F8023B4FF400468C
:10AC000020F8026B4FF4004820F8028B4FF4004C00
:10AC100020F802CB4FF4004E20F802EB874215D00B
:10AC200081464FF4004229F8022B103020F80E2CF8
:10AC3000A9F8022020F80A2C20F8082C20F8062C6D
:10AC400020F8042C20F8022C8742E9D1034813F0A5
:10AC500093FF13B0BDE8F0830800024000240140D8
:10AC60004C240140014813F087BF00BF002401407D
:10AC700070B582B0054602AC01214FF4802014F07B
:10AC80000BFC8023012244F8083D6946002402267B
:10AC90000B488DF807208DF804408DF806408DF89C
:10ACA000056014F03DF9694640230548009314F00F
:10ACB00037F92846FF2100F8011B017002B070BD72
:10ACC0000004004870B50C4D067804467200284612
:10ACD0008021D6B214F096FA6378304320704FEAA0
:10ACE000430C284640215FFA8CF514F08BFA40EAB9
:10ACF0000501617070BD00BF000400482DE9F84FE8
:10AD0000044600F58253103341F2500904F68C6B6F
:10AD100004F5696CAD4AAE48AE4FDFEDAF7A002660
:10AD200004F6886A04F62C7E44F809A004F57368DA
:10AD300084F8946E04F6347ACBF80020CCF8002026
:10AD400004F6887BC3F804E004F6847E04F55479A5
:10AD500004F5786C0D4604F5627184F8386FC8F814
:10AD60000070CAF8000004F50078C3F80890C4F831
:10AD70005403C4F8580384F85C63D960C4F88C7336
:10AD8000C4F8900384F8946304F624111C612673BC
:10AD90006260A260C3F814C084F88C6FCEF8000023
:10ADA000CBF8000004F67C4E04F54860C3F8188028
:10ADB00004F61C194FF07E5804F5126A04F6784C1C
:10ADC000DFF820B284F80C62C4F80422C4F8082228
:10ADD000C3F81C9084F8286904F5D369CAED007A99
:10ADE0000A60C3F820C084F8846CCEF800B0C0F8C4
:10ADF000008004F21C7E04F5E460C3F82490BFEEEA
:10AE0000000A04F29C6704F5D46104F5E36C4FF08A
:10AE1000404B04F6343984F8A46604F62C3A87EDE6
:10AE2000000A81ED000A04F53367C3F828C0012148
:10AE300084F8246704F2545CCEF800B0C0F80080B7
:10AE400004F5AB6E04F25C50C3F82CA004F5A478B2
:10AE500084F8381B04F5006A87ED000AC9F8002061
:10AE600004F2FC77C3F830C084F8601504F5826CF6
:10AE70008EED000A04F2144E026004F5FF6BC3F875
:10AE80003480102004F20C4904F5845884F85411DD
:10AE9000C4F84C21C4F850218044C3F838B084F879
:10AEA0000418A3F1040B3A60CAF80020C3F83C90E0
:10AEB00084F81814CCF80020CEF8002018645BF851
:10AEC000040F6B680268E9682B601768A96029465F
:10AED000B847D8F800000136B042F0DC04F58151E3
:10AEE00004F5805E884604F582569FED3C7ADFEDDE
:10AEF0003C0ADFF8F4B004F6CC7900230A460F468A
:10AF000035464FF0000A4FF0FF30C4F8C80FC4F8C0
:10AF1000C4AFC9F80030CEF81C30C1F808B081EDDC
:10AF2000007AC1ED010A0B61C8F80C3041464FF0C0
:10AF30007C58CEF8188004F6D87CBB6104F6DC7926
:10AF4000C2F824B082ED077AC2ED080A04F6E47B69
:10AF5000F36004F6E872AB6004F57D6604F57F6586
:10AF60000EF1100004F57E67B7EE001A8542C1F8B5
:10AF70001480CCF80030C9F8003087ED001ACBF807
:10AF80000080136084F8D4AF3360CEF8145016D02C
:10AF900004F6F47EF2462B6004F6F8714AF8103B92
:10AFA00004F6FC7804F5805C0B60C8F80030CCF83F
:10AFB0000030CAF80030CEF81430CEF8183041F224
:10AFC00010030027E750BDE8F88F00BFCDCC4C3F01
:10AFD0009A99193F3333333F333333BF22BA003D9D
:10AFE0000AD7233C000040C0CAAA7F3F2DE9F04F9A
:10AFF000044641F2100600F58050A75994F8D49FFA
:10B000009FEDE67A00F11008F81D154600F00702E2
:10B01000D8F80400D5F818A000EB870C02F1050B56
:10B0200002F1060E0BF007070EF007082DED048B5A
:10B03000CCF800A000EB870A00EB8800DAED007A7C
:10B04000D0ED006AA25136EEE70A8FB00E469B465D
:10B05000E0EE077AB9F1000F41F022809FEDD01A9F
:10B06000F4EEC17AF1EE10FA01F32A8004F6D872F8
:10B0700004F6CC7395F823A0BAF1000F01F00A8012
:10B08000D3ED001A41F2900096ED073A2358D4F818
:10B09000C41F03F1FF3802EE108AF8EEC33AF8EE4F
:10B0A000C22A04EE101AE2EEA13AB8EEC46AFDEE2E
:10B0B000004AF4EEC63AF1EE10FAB5EE005AC8BFF7
:10B0C000B0EE645A73EE855AB6EE008A75EE888A41
:10B0D000BDEEE89A19EE107A002FC1F23A80BB4219
:10B0E000C8BFB84604F5825ED4F8C80FC4F8C48F50
:10B0F0000EF1100C40455CF8287000F0F7873B68B3
:10B10000384659680392884704F580524FF07C50C6
:10B110009061039A95F82330C4F8C88F94F8D41F2F
:10B12000002900F0B48789F0010904F57D6ADAEDA1
:10B13000009AD5ED017A77EEA96AB6EE007ACAEDEB
:10B14000007A26EE875A002B00F09C878DF820901D
:10B1500096ED080ADFED930A9FED9D1A95ED076ABB
:10B16000DFED9C2A9FED8E2A9FED8F8ADFF854E257
:10B17000DFF854A29FED8D3AD2ED009ADFED875AA9
:10B18000D6ED013A95ED034A95F82410DFED884A93
:10B19000A0EE201AF0EEC61AFDEEC18A26EE089A3D
:10B1A000F8EEE87A71EE826A31EE677A18EE900A6C
:10B1B00027EE220A89EE269A0EEB800CBDEEC01A0D
:10B1C000DCED000A11EE100A0AEB800999ED002A65
:10B1D00020EE828AF7EE002A68EE038AB0EE006A5B
:10B1E000B1EE688AB0EE623AA8EE063AB4EEE59A9D
:10B1F00023EE297A73EE849AF1EE10FA48BFB0EE8E
:10B20000659AF4EEE59A00290CBFF0EE643AF0EE90
:10B21000493AF1EE10FA82ED007ACDED0D3A00F1E7
:10B220009C87F4EEE29AF1EE10FAC8BFF0EE629A53
:10B23000CDED0C9AB8F1070F00F05B8795F8202050
:10B2400095F82210F7EE001AD6ED046ADFED577A72
:10B250009FED580AD6ED000AD5ED023AB0EEE61A97
:10B2600031EE676A21EE872AB4EEE76AF1EE10FA52
:10B2700058BFF0EE467A66EEA72A35EE203A62EE27
:10B28000809A42B9002B00F0178762EE075A9FEDB3
:10B290004A4A65EE843AA9EEA33ADFED484AB4EE95
:10B2A000E43AF1EE10FA00F1D086DFED451AB4EE83
:10B2B000613AF1EE10FAD8BFF0EE431AD6ED056A06
:10B2C000DFED3A7A9FED3B0A95F82120CDED091A82
:10B2D000B0EEE65A75EE670A96ED021A95ED043A5D
:10B2E000F4EEE70AF1EE10FA58BFF0EE607A26EEBF
:10B2F000A76A66EE002A2AB99FED283A002B18BFEC
:10B30000B0EE473AF0EE419AE2EE839AF5EEC09A3B
:10B31000F1EE10FA00F11987B7EE007AF4EE479AD1
:10B32000F1EE10FACCBFF0EE473AF0EE693A96ED46
:10B33000064ADFED1E4ADFED1F1ACDED0A3AF0EEA8
:10B34000C45A75EEE46AD6ED037AD5ED050AF4EE3B
:10B35000E46AF1EE10FA58BFF0EE664A24EE240AD1
:10B3600020EE215A29B9DFED0D0A002B18BFF0EEAF
:10B37000420AB0EE671AA5EE201AB5EEC01AF1EE39
:10B3800010FA00F1EE86B7EE002AB4EE421AF1EEA2
:10B3900010FAC8BFB0EE421A1EE000BF0000000065
:10B3A0009A99993E0000C0C26666A63FCDCC4C3D3E
:10B3B000CDCC4C3F6666863F000040420000EEC2A6
:10B3C0000000F042CCE70308D0EB0308000090C275
:10B3D000000000430000804339681C9897F80CC0B7
:10B3E000009004F5875E0DF11F0304F58458019366
:10B3F0000EF1140908F1140842468DF81FC08DEDB6
:10B400000B1AD1F808C04B46384608A9E0479DF80A
:10B410001F20002A40F0EF8295F82430002B00F026
:10B42000E582D6ED092A96ED083A5FED189A1FEDF0
:10B43000187A1FED186AE84EDFEDE83AB2EE084AD6
:10B4400062EE844AE3EE294A74EE871AFDEEE15A71
:10B45000F8EEE56A15EE901A71EEE67A06EB810ECB
:10B4600027EE865A9EED000AFDEEC50A10EE900A00
:10B470000AEB800C9CED002A20EE021AA1EE238A32
:10B48000002B40F072869DED099A9FEDD53AF2EEC1
:10B49000029A79EE693AF4EEC33AF1EE10FA00F14D
:10B4A00007879FEDD04AF4EEC43AF1EE10FA40F36C
:10B4B000B686FF22C84E94F8EC5F06EB82010AEBD9
:10B4C000830A91ED000ADAED007A002D00F0D586AE
:10B4D00020EE274ADFEDC44A64EE246A04F6DC73EA
:10B4E000B2EE086AD3ED000A26EE860AF0EE007A84
:10B4F000E0EE270AF7EE001AF4EEE10AF1EE10FA98
:10B50000C3ED000AC0F29D8600209FEDB81A9FEDA2
:10B51000B87A84F8EC0FF0EE613AF0EE610AFFEED3
:10B52000005AB7EE003A73EE639AE8EE298A04F502
:10B530007E6EA2EEA17A04F6E47504F6E87CE8EEED
:10B54000A50A002662EE878A9FEDAA8AC3ED000A4B
:10B55000A2EE881A62EEA82AD7ED018ACEED000A83
:10B56000F5EEC08AF1EE10FA85ED001AF0EE601AE1
:10B57000B0EE629AF0EE416ACCED002A40F15082C2
:10B580001C98F1EE682A431E002800F0AC86424663
:10B59000F2EC010A9FED980A9FED986A04F5805A33
:10B5A0000AF1180162EEA05A91ED007AB0EEE54A78
:10B5B00074EE474AB7EE002AF5EEC04AF1EE10FAF3
:10B5C000C8BFB0EE406AA4EE867A03F00100059091
:10B5D000B4EEC27AF1EE10FA81ED007A01D982EE72
:10B5E000072A581E049065EE827A9FED855A27EE51
:10B5F000858A02ED018A002B00F08E80059870B3D9
:10B60000F2EC018A91ED001ADFED7B9ADFED7B3AD7
:10B6100004989FED7B7A22EEA83AF7EE000AB0EE8E
:10B62000C30A30EE416A0138B5EEC06AF1EE10FA95
:10B63000C8BFF0EE693AA6EE231A0490B4EEE01A01
:10B64000F1EE10FA88BFC0EE810A013081ED001AD8
:10B6500063EE205A25EE874A02ED014A5CD0059739
:10B66000049F9246FAEC014A91ED002ADFED627ADE
:10B670009FED625ADFED620A9FED5F3ADFED5F3AC0
:10B6800022EEA48AF7EE008AB0EEC81A71EE429A52
:10B690005246F5EEC09AF1EE10FAC8BFB0EE675A06
:10B6A000A9EE852A781EB7EE004AB4EEE82AF1EE3C
:10B6B00010FA88BFC8EE828A81ED002A28EE280A97
:10B6C00020EE206A0AED016AF2EC015A91ED007A4F
:10B6D00022EEA52AF0EEC24A74EEC77AF5EEC07AE1
:10B6E000F1EE10FAC8BFF0EE433AA7EEA37AB4EE3B
:10B6F000C47AF1EE10FA81ED007A01D984EE074A9E
:10B70000471E9FED3F5A22EE048A68EE058A42EDFD
:10B71000018A0028A5D1059F9EED003AD5ED009A3B
:10B72000DCED003ADFED372A002E00F08A811C9D07
:10B73000002D00F0AE80F8EC011A22EEA19ADE4650
:10B74000FDEEC96A03F0030016EE90CA0CF1010188
:10B7500001F30F022EF8042B591E0EF10402002BE8
:10B7600000F09780002853D0012821D002280FD064
:10B77000B8EC011A62EE810A0139BDEEE00A04322A
:10B7800010EE10AA0AF1010505F30F0E22F808ECDD
:10B79000B8EC016A62EE865A0139BDEEE57A0432F0
:10B7A00017EE10CA0CF1010000F30F0522F8085C37
:10B7B000B8EC012A62EE824A0139FDEEE47A481CB7
:10B7C00017EE90AA02F104020AF1010E0EF30F0C1B
:10B7D00022F808CC5DD01BE0CCE703080AD7A33BD6
:10B7E000000000C30000FE4251969639D1229B3ED4
:10B7F000000000000AD7233DCDCC4C3DACC5A73797
:10B80000CDCC4C3F00FEFFC6D7573941DB0F494036
:10B810004046B0EC014A98ED028AD0ED008A98EDDE
:10B82000039A08F1100822EE845A62EEA81AFDEE7F
:10B83000C56ABDEEE11A62EE880A22EE890A9646D2
:10B8400016EE90AA11EE105ABDEEE06AFDEEC05A57
:10B850000AF1010016EE10CA00F30F0005F1010A0B
:10B8600022F8040C0AF30F052EF8045B15EE90AADB
:10B8700004390CF1010000F30F00AEF80000481C81
:10B880000AF1010502F1100205F30F0C22F808CCB1
:10B89000BED197ED029AB5EEC09AF1EE10FA00F122
:10B8A000EC8100F1B2825FED298A29EE281A002E80
:10B8B00000F0B0821C9C002C00F09380F9EC019AFF
:10B8C00021EE293A03F00306FDEEC33A0BF10A0E0E
:10B8D00013EE905A03F1FF386F1C07F30F00ABF81B
:10B8E0000200002B7DD0DEB3012E24D0022E10D01A
:10B8F000B9EC016A61EE062A08F1FF38BDEEE29A62
:10B9000019EE103A5C1C04F30F062EF8046C0BF1D0
:10B910000E0EF9EC018A61EE280A08F1FF38BDEE3F
:10B92000E00A0EF1040E10EE10BA0BF1010505F35A
:10B930000F072EF8087CF9EC011A61EE216A08F174
:10B94000FF38FDEEE67A18F1010417EE90CA0EF109
:10B95000040E0CF1010101F30F002EF8080C40D089
:10B960004A46B2EC017A99ED024A92ED002A99ED2D
:10B97000038A09F1100961EE074A21EE025AFDEE31
:10B98000E45AFDEEC59A21EE043A61EE083A734698
:10B9900019EE906A15EE90AABDEEC36AFDEEE32A99
:10B9A0000AF10104751C04F30F0705F30F012EF8CB
:10B9B000047C16EE10BA23F8041B12EE90CAA8F10C
:10B9C00004080BF1010202F30F061E8018F10106B4
:10B9D0000CF101000EF1100E00F30F042EF8084CCC
:10B9E000BED10FB0BDEC048BBDE8F08F95F82350AD
:10B9F000002D7FF416AD04F57E6E04F6E47504F6B2
:10BA0000E87CDEED001AD5ED006A9CED009A012677
:10BA1000D7ED018AF5EEC08AF1EE10FA3FF5B0AD30
:10BA200000F149841FED891A1C99F0EE493A68EE3D
:10BA3000812AF0EE669AB0EE613A4B1E002E7FF43A
:10BA400076AE1FED8F2A1FED8F7A66EE827AB7EE03
:10BA5000004AA7EEA67A04F5805101F11C0CF0EE25
:10BA6000044A67EE268AB0EE448AA8EEA48A04F55A
:10BA70008152DCED006AC2ED008AA8EEA88AB0EE21
:10BA8000665A84EE081A92EEA15ADDED1C2A82ED68
:10BA9000021AF8EE621A12EE905AC2ED014AC5EE91
:10BAA000210A002D00F0DF80DE4603F00101581E60
:10BAB000D2ED035AB8EC017A92ED046A76EEA06AF0
:10BAC00024EEE52AB1EE680AA7EE262AA0EE252A82
:10BAD00072EE467A21EE274AE8EE845AA8EEA56A6D
:10BAE000B0EE658AB0EE465A97EE265AF0EE461A48
:10BAF000A5EE096AA8EE848AE8EEA51ABDEEC67A1C
:10BB0000C2ED041A17EE10AA82ED038A0AF10105AC
:10BB100005F30F052EF8045BF0EE487AF0EE615A5B
:10BB20000EF10405002B00F09E80A9B3B8EC012AA9
:10BB300076EEA06A64EEC84AB0EE674AE2EE264AA4
:10BB400001380435B0EE615AE0EE084A34EEE16A9D
:10BB500021EE068AA8EE884AA8EE845AF0EE447ACE
:10BB6000F0EE452AD2EE262AF0EE455AA2EE895A88
:10BB7000E8EE887AFDEEC51AE8EE845A11EE90EAF6
:10BB80000EF1010101F30F0A411CC2ED045AC2ED8E
:10BB9000037A25F808AC66D0B0EE047AB8EC015A06
:10BBA00036EEA04A67EE674A74EE206AE5EE044A74
:10BBB000AE460238E0EE274A34EEE52A21EE026A6C
:10BBC000E8EE867AE8EEA75AB0EE678AF0EE651ADC
:10BBD000A8EE868AE8EEA71A82ED038AC2ED041A5F
:10BBE00067EE487AB8EC017AE7EE267AF0EE654A1D
:10BBF000E0EE087AD5EE044A37EEE15AF0EE482A34
:10BC000021EE052AE4EE895AE8EE822AFDEEE55A95
:10BC1000E8EEA21A15EE901AB0EE618A97EE268A27
:10BC2000013101F30F01F0EE615AE8EE091A25F82F
:10BC3000041CB0EE626AA8EE826AE8EEA25AFDEE3B
:10BC4000E12AC2ED045A12EE90AA82ED036A0AF1CB
:10BC5000010505F30F012EF8041B411CF0EE467A96
:10BC60000EF1040598D1CCED006A97ED029AB5EE7D
:10BC7000C09AF1EE10FA7FF514AE1C9FB1EE491A8E
:10BC8000002F00F0C2804A46F2EC010A9FEDF10A53
:10BC9000DFEDF11A04F5815808F1140C61EE206A09
:10BCA000DCED007AB0EEE67A77EE674AB7EE004A4E
:10BCB000F5EEC04AF1EE10FAC8BFF0EE401AE4EE1D
:10BCC000A17A03F00100F4EEC47AF1EE10FACCEDA3
:10BCD000007A01D984EE274A03F1FF3A26EE845A0E
:10BCE000DFEDDE5A25EE252A02ED012A002B00F0B9
:10BCF0008C8070B3B2EC016A9CED008ADFEDD52A2E
:10BD00009FEDD59ADFEDD57A61EE068AF7EE000A4F
:10BD1000B0EEE80A70EE481A0AF1FF3AF5EEC01AE2
:10BD2000F1EE10FAC8BFB0EE629AA1EE898AB4EEC5
:10BD3000E08AF1EE10FA88BFC0EE880A1AF101001D
:10BD40008CED008A68EEA06A26EEA77A02ED017AF1
:10BD50005BD09646BEEC014A9CED002ADFEDBD4A61
:10BD60009FEDBD5A9FEDBD9ADFEDBA8ADFEDBA0AAD
:10BD700021EE048AF7EE005AB0EEC86A76EE422A47
:10BD80007246F5EEC02AF1EE10FAC8BFB0EE645A62
:10BD9000A2EE852A0AF1FF31F7EE004AB4EEE52A59
:10BDA000F1EE10FA88BFC5EE825A8CED002A28EE1B
:10BDB000250A60EE091A4EED011AF2EC016ADCED7B
:10BDC000007A21EE267AB0EEC74A34EE672AB5EE45
:10BDD000C02AF1EE10FAC8BFF0EE680AE2EE207A4F
:10BDE000F4EEE47AF1EE10FACCED007A01D9C4EE6B
:10BDF000A74A01F1FF3A9FED995A27EE248A68EE8F
:10BE0000055A42ED015A0029A3D19FED9C1A002E3C
:10BE10007FF450AD9FED929ADFED928A69EE890A28
:10BE2000F7EE001AE0EEA98A04F5815808F118002F
:10BE3000B0EE040A28EEA97AB0EE614AA7EE004AF5
:10BE400004F5815E0EF11C0AD0ED006A8AED007ADD
:10BE5000A7EE074AB0EE662AC1EE849A91EE032A55
:10BE60009DED1C1ACAED029AF8EE417A11EE105AB5
:10BE70008AED010AC2EE272A002D00F0DF8003F0D0
:10BE800001070BF10A015A1EDAED035AF9EC014AD7
:10BE90009AED045A76EEA26A20EE658AB1EE479AD0
:10BEA000A4EEA68AA9EE258A38EE453A29EE836AE1
:10BEB000E7EE065AA7EE255AF0EE658AF0EE450A3F
:10BEC000D4EEA60AB0EE454AA0EEA35AE7EE068AE3
:10BED000A7EE254ABDEEC52A8AED044A12EE10CA25
:10BEE000CAED038A0CF10106F0EE687A06F30F043E
:10BEF000F0EE445AABF80240002B00F09F80AFB345
:10BF0000B9EC011A76EEA26A20EE680AB0EE683A41
:10BF1000A1EE260A013AB0EE445AA9EE280A70EEC4
:10BF2000444A29EEA48AA7EE083AA7EE035AF0EE97
:10BF3000437AB0EE456A91EE266AF0EE455AA6EED7
:10BF4000235AE7EE087AFDEEC58AE7EE035A18EEAB
:10BF5000903A5D1C05F30F07551CCAED045ACAED53
:10BF6000037A21F8047C0BF10E0167D0F0EE040A8D
:10BF7000B9EC012A76EEA21A20EEE74A71EEA26A27
:10BF8000A2EE214A8B46023A571CA9EE274A34EE0C
:10BF9000650A69EE804AE7EE247AE7EE275AB0EEAA
:10BFA000671AB0EE655AA7EE241AA7EE275A8AED53
:10BFB000031A8AED045AB9EC016A60EEC17AB0EE58
:10BFC000658AE6EE267A92EE218AE9EE017AB0EEF3
:10BFD000413A77EEC50AE8EE235A69EEA01AFDEE63
:10BFE000E55AA7EE213A15EE908AA7EE035A08F11A
:10BFF000010606F30F04B0EE434AB0EE452A96EE72
:10C00000262A21F8044CF0EE455AA2EE235AA7EE58
:10C01000214AE7EE035ABDEEC50ACAED045A10EEF6
:10C0200010EA8AED034A0EF1010303F30F052BF822
:10C03000045BF0EE447A0BF1040197D1C0ED006A85
:10C040000FB0BDEC048BBDE8F08FF0EE641AFFF783
:10C0500035B900BFCDCC4C3DACC5A737CDCC4C3F9E
:10C06000D7573941DB0F4940CDCCCC3D0AD7233DD2
:10C070009A99193F9A99993EA69B443B00FEFFC6A8
:10C080000000000002208DF82000FFF761B889460B
:10C09000FFF74BB8D5ED001AC3ED001AFEF7F2BF5B
:10C0A0005FED0F0AF4EEE07AF1EE10FA44BF0023E0
:10C0B00084F8D43FFEF7DABFF7EE003AFFF7EBB8AB
:10C0C00095F82410012784F8D47F09B984F8EC7F0F
:10C0D00004F6D87204F6CC73D5F800E04FF07E5C1D
:10C0E000C2F800C0C3F800E0FEF7C4BF5346FFF734
:10C0F00015B8DDED0C5AB1EE084AF0EE004AE5EE57
:10C10000C44AF5EEC04AF1EE10FA00F1E080F7EE15
:10C11000001AF4EE614AF1EE10FAD8BFF0EE641A9C
:10C12000002B6CD095F82020002A40F0D980D6F85A
:10C1300010C095F8221004F62430C0F800C0002981
:10C1400040F0CA80D6F8188063E05FED333AFFF71D
:10C15000EEB84FF00008FEF7C5BFCDED0C5AFFF763
:10C1600069B81FED391AFFF737B904F6DC72D2ED62
:10C17000000A1FED403A5FED407A1FED445AF7EE9A
:10C18000003A39EE607A33EEE04A60EEA05A24EECF
:10C19000046A25EEA50AB5EEC07AF1EE10FAF7EEC4
:10C1A000004AD8BF73EEC03A34EEC62AD8BFE8EED4
:10C1B000238A04F57E6E04F6E475A2EE826A04F624
:10C1C000E87C4FF00006E0EE037AC8BF5FED588AC6
:10C1D000E2EE857AE7EE280A62EE869AC2ED000A60
:10C1E00022EEA98ACEED000AF0EE601AC5ED007AC3
:10C1F000F0EE676AB0EE489A8CED008A08E404F627
:10C20000243E4FF0000895F8202095F82210CEF833
:10C21000008004F62839C9F80080FFF715B833EE1E
:10C22000877AFDEEC74AF8EEE41A14EE902A77EE0C
:10C23000615A25EE866AFDEEC66A16EE903AFFF761
:10C2400039B920EEA02A31EEE05A1FED769A1FEDA3
:10C25000761A62EE023A25EE057AA3EE891A70EE9E
:10C26000E05A71EEC71AF5EEC05AF1EE10FA7FF7F8
:10C2700058A95FED818AFFF75AB904F6DC73D3ED54
:10C28000000A1FED842A1FED841A1FED839AB7EE72
:10C29000005A20EEA03A75EE609A63EE033A29EE5A
:10C2A000A97AA3EE821A75EE471A79EE605ADAE798
:10C2B0001A46FFF7FFB81C9B5FED902A013BF0EE9A
:10C2C000493AF0EE669AB0EE613AFFF72DBA5FEDAB
:10C2D000941A002B93D025E74FF00008194698E7F1
:10C2E0004FF0000C25E7F0EE493AF0EE669AB0EE1A
:10C2F000613AFFF717BA00BF10B400F1B80200F5B9
:10C30000A4741146002341F8043B243242F8203C37
:10C310004B6042F8183C42F8143C42F8103C42F89A
:10C320000C3C42F8083C42F8043C9442E9D10361D9
:10C3300043618361C361036243628362C3620363D7
:10C3400043638363C363036443648364C3640365B7
:10C3500043658365C365036643668366C366036797
:10C3600043678367C367C0F88030C0F88430C0F883
:10C370008830C0F88C30C0F89030C0F89430C0F8E5
:10C380009830C0F89C30C0F8A030C0F8A430C0F895
:10C39000A830C0F8AC30C0F8B030C0F8B4305DF8A8
:10C3A000044B7047704700BFF7EE007A87EEA03A63
:10C3B0002DE9F00771EE276A73EE671A06EE103A60
:10C3C00081EEA62AB8EE467AF6EE003A77EE672AB4
:10C3D00023EEC23A32EE824AA4EE003A002B00F07D
:10C3E0001581DFF838C29FED8B5A0CF10408161F37
:10C3F000002000EE100AF8EEC04AF5EE007A74EE66
:10C40000C35ADFED851A56F8044F9FED822AF0EEED
:10C41000E56A26EEA06AB7EE007AE6EE017A01EB55
:10C420008409013077EE462AFDEEE73AB0EEE24AA3
:10C43000B8EEE30A74EE224A77EEC07A64EEA46A9C
:10C4400067EEA15AD9ED001ABDEEE56A984216EEE4
:10C45000107A4FEA87050CEB050A4544DAED003AFD
:10C4600095ED004AF8EEC62A74EE634A35EEE20A0C
:10C47000B0EE616AE0EE243A73EE877A66EEA76A60
:10C4800066EEA65A95EEA56AE6EE021AC9ED001A06
:10C4900035EE215AADD1C7EE050A134602EB8000F6
:10C4A00053F8046B01EB860C821A141F8342C4F309
:10C4B00082079CED001A21EE203A8CED003A00F044
:10C4C000A580002F53D0012F45D0022F39D0032F44
:10C4D0002DD0042F21D0052F15D0062F09D053F8C9
:10C4E000045B01EB850898ED002A22EE207A88EDA6
:10C4F000007A53F8046B01EB8609D9ED001A61EE5E
:10C50000A03AC9ED003A53F8042B01EB820A9AEDE8
:10C51000004A24EE200A8AED000A53F8044B01EB8E
:10C52000840CDCED004A64EEA07ACCED007A53F87E
:10C53000047B01EB8705D5ED006A66EEA05AC5EDD8
:10C54000005A53F8046B01EB860898ED006A66EE1A
:10C55000202AC8ED002A53F8042B01EB820999ED3B
:10C56000005A25EE201A834289ED001A4ED09A46D1
:10C570005A685AF8048BDF681E695D699C69DAF8AD
:10C5800004C0D3F81CA001EB880999ED003A23EE12
:10C59000202A01EB820889ED002A98ED007A67EEE7
:10C5A000201A01EB8C0CC8ED001ADCED003A23EEEA
:10C5B000A04A01EB87078CED004A97ED000A60EE78
:10C5C000204A01EB8606C7ED004AD6ED007A67EEF9
:10C5D000A06A01EB8505C6ED006AD5ED005A25EE8F
:10C5E000A06A01EB840485ED006AD4ED002A22EEF6
:10C5F000A05A01EB8A0A84ED005A9AED001A203302
:10C6000021EE203A83428AED003AB0D1BDE8F0072E
:10C61000704700BF6F12833A0000804488A303086C
:10C620002DE9F04FD1ED016A9FED957A2DED108B3C
:10C63000F2EE027A36EEE70AB3B0B4EEC70AF1EED4
:10C6400010FADDF83081044616461F4600F1438695
:10C65000DFED8C0AB4EEE00AF1EE10FA40F3FB8055
:10C6600000234FF0FF0E91ED048ADFED875A91ED24
:10C67000036A9FED865ADFED868A8648864DCDEDAA
:10C680000A8AB7EE00AAA8EE65AA00EB830904F1B6
:10C69000B80AD1ED029ADDED0AEA99ED00CA9FEDE4
:10C6A0007F9ACDED0B9A2AEE06BA05EB8E016BEE62
:10C6B00005CAD1ED00BA9DED0B0A794A6CEE8BDA12
:10C6C000F3EE00AA28EE2ADAEDEE8BEA51461823A3
:10C6D0002BEE8CEA2DEE08FA6EEE09FAF0EE6E0AF9
:10C6E000B0EE4F1A2046CDED0AEA8DED0CFACDEDF5
:10C6F00009FAFFF759FEDDED096A94ED057AF6EEC9
:10C70000007AF4EEE76AF1EE10FA05EE908AB8BF0F
:10C71000F0EE667A37EEC70AF8EE658A514680EE8B
:10C72000288A0DF1400E04F11809002304F1100CC1
:10C730004AE0DFED5C9A9646BEEC01AAD1ED00AA74
:10C740000AED01AA9AEEA9AA0BF10203CCF1100995
:10C750000BEE103A8AEE28CA5046A1449144CCF11F
:10C76000100B4AF8089CA344DE44083102F1080982
:10C77000F8EECBBAB6EE00DA67EEABCA1CEE105A92
:10C78000F4EECDCAF1EE10FABEBFB7EE00DAB0EEAD
:10C7900000CAACEECCDA40F80C5BD2ED01DAA8BFEF
:10C7A0009FED40DA51ED015A40F808ECB0EE6DEA29
:10C7B00095EE8DEA0C2B0AF1180E40ED01DA8EEEA3
:10C7C00028FA8AED03FA73D003F1010B00EE90BA58
:10C7D000B8EEE01AF6EE001A27EE812A4A46B4EEC9
:10C7E000E12AF1EE10FABEBFF0EE005AF7EE001AA1
:10C7F000E2EE651A0BF10103CCF11005F2EC012A0F
:10C80000A8BFDFED281AF1EC014A4EED012AB0EE87
:10C81000623A94EEA13A25444D4403EE903A83EEF9
:10C82000285AF2464EF8085CB8EEE34AB6EE006AC3
:10C8300067EE845A15EE10EAF4EEC65AF1EE10FADD
:10C840004AF80CEBBFF675AFB0EE009AF7EE009A1F
:10C85000E5EEC99A6FE79FED141ADFED141A30EE7A
:10C86000012AFDEEC24AF8EEE42A14EE90EA32EE16
:10C87000623A63EE213ABDEEE34A14EE103AF2E674
:10C88000000000C30000FE429A99193F52B8FE3FD3
:10C890000AD7233CD0EB0308CCE70308519696391E
:10C8A00060B803080000000000000043000080435F
:10C8B00008F1FF35B8F1000F00F0D980DFF884A34C
:10C8C0009DED10BADDED13AA9DED16AADDED199AC6
:10C8D0009DED1C9ADDED1FBA9DED22CADDED25CA46
:10C8E0009DED28DADDED2BDADDED2EEA9DED31EA66
:10C8F0009DED0F0ADDED120A9DED151ADDED181AFA
:10C900009DED1B2ADDED1E2A9DED213ADDED243A39
:10C910009DED274ADDED2A4A9DED2D5ADDED305A79
:10C92000CDED018A0AF1040C2B46B346D4ED04FA8E
:10C93000DFEDC26A37EE087AF7EE007A77EE2F8ADB
:10C9400030EE0B6AF4EEE78AF1EE10FAA8BF78EE4B
:10C95000E78ADFEDBB7AC4ED048A28EEA6FAF6EE8C
:10C96000008AFDEECFFA31EE0A1A1FEE902A9100EE
:10C970000AEB01006144B8EEEF0AD0ED006AD1ED98
:10C9800000FA3FEE40FA7FEEE6FABFEE000AEFEE65
:10C990002F6A013B5A1C71EEA91AB0EE66FA70EECE
:10C9A000AA6A7FEE0F0A32EE092A60EEA88A72EEBA
:10C9B000AB2AA0EEA80AE8EE867AD0EE808AE0EEF6
:10C9C000267A90EEA80AE8EE817AD0EE808AE0EE30
:10C9D000217A90EEA80AE8EE827AD0EE808AE0EE24
:10C9E000227A33EE0C3A90EEA80AE8EE837A73EEE0
:10C9F000AC3AD0EE808AE0EE237A34EE0D4A90EE27
:10CA0000A80AE8EE847A74EEAD4AD0EE808AE0EEB1
:10CA1000247A35EE2E5A90EEA80AE8EE857A7EEE5C
:10CA2000255AF0EE40FAE5EEAF7AB0EE460AF0EEA7
:10CA3000660AEBEC017A7FF479AFDDED018A8DEDCA
:10CA40000F6ACDED126A8DED151ACDED181A8DED28
:10CA50001B2ACDED1E2A8DED213ACDED243A8DED28
:10CA6000274ACDED2A4A8DED2D5ACDED305A2F981B
:10CA7000309B84ED057A2C990360299A2698DDF87D
:10CA8000B4A0DDF8A8E0DDF89C90C1F800A0C2F8E1
:10CA900000E02099C0F800901D9ADDF88C90DDF838
:10CAA00090B0DDF884C0DDF878E0C9F800B01A9BDA
:10CAB000C1F800C01798C2F800E01499119ADDF887
:10CAC00054C0DDF86CA0DDF860B0DDF848E0C3F8D4
:10CAD00000A0C0F800B0C1F800C0C2F800E09DEDB1
:10CAE00009BA0E9B0F981860B6EE008AB4EEC8BA69
:10CAF000F1EE10FA94ED137AB8BFB0EE4B8A78EEEF
:10CB000047AA04F1E8018AEEA8EA04F1500E0DF1FB
:10CB1000400C0D2204F148094BE09FED491ADC4618
:10CB2000FCEC016AD1ED001A43ED016AD1EE816A95
:10CB300002F1010EC9F1480A02EE10EA86EEA83AA7
:10CB4000A2441846DA4443F808ACC9F1480AA244A2
:10CB50000232D4440831F8EEC22AB6EE004A68EE3A
:10CB6000223A13EE10EAF4EEC43AF1EE10FABEBF28
:10CB7000B7EE004AB0EE003AA3EEC34A40F80CEB21
:10CB80009BED015AA8BF9FED2E4A51ED015A40F886
:10CB900008CCF0EE454AD5EE844A192A0BF1080E6E
:10CBA00000ED015A84EEA80A03F1180C83ED030A84
:10CBB0004AD009EE902AB8EEE99AB6EE00AA68EEDD
:10CBC00009BAF346F4EECABAF1EE10FABEBFF0EEBF
:10CBD000005AB7EE00AAABEEE5AA02F10102C9F1D4
:10CBE0004800BBEC01CAA8BF9FED15AAF1EC015AA1
:10CBF0000CED01CAF0EE4CCAD5EE8ACA2044634659
:10CC00000DEE102ACCEEA8EA70444CF8080CF8EEB1
:10CC1000CDDAB6EE006A68EE2D7A1EEE90AAF4EE3A
:10CC2000C67AF1EE10FA43F80CABBFF676AFB0EE71
:10CC300000FAB7EE001AA7EECF1A70E700008044A2
:10CC40000000000088A30308B8F1000F00F0328153
:10CC5000DDED190A9DED1C8ADDED22AA9DED25AAC8
:10CC6000DDED289A9DED2B9AC44B9DED1FBADDEDAD
:10CC700031BACDED020A8DED038ACDED05AA8DED19
:10CC800006AACDED079A8DED089ADDED10FA9DED1F
:10CC900013FADDED16EADDED2EDADDED0FAA9DEDDE
:10CCA00012AADDED159A9DED189A9DED1B8A9DED5A
:10CCB0001E0ADDED210A9DED241ADDED271A9DEDFA
:10CCC0002A2ADDED2D2A9DED303A8DED04BACDED09
:10CCD00001BA03F1040B2A46CDED0D8AD4ED128A78
:10CCE0009FEDA7BA37EE0E7AF7EE005A37EE28CA54
:10CCF000F2EE08CAB4EEE5CAF1EE10FAA8BF3CEEB7
:10CD000065CAB5EE00DAACEE2CDA013AF2EE0A7A38
:10CD10006CEE276ABDEECD6AFDEEE63AB8EEC64A85
:10CD2000B8EEE35A7DEE444A2CEE0B4A76EEC5BAD5
:10CD3000FDEEC45A2BEE8B5A64EE8B4A15EE900A28
:10CD400084ED12CAFDEEC53ABDEEE4CA4FEA800991
:10CD500003EB09011CEE100AB8EEE5DAD1ED005A3A
:10CD6000DFED897AF6EC018A13EE901AD944D9EDF9
:10CD700000CA4FEA800A4FEA810E03EB0A0903EB6F
:10CD80000E0CDA44DE4499ED006ADAED00BADCED0F
:10CD9000006A9EED00BA34EE4D4AB8EECCCA3CEEC5
:10CDA000E5DAF8EEE33A74EECC4A7BEEC6CAE4EE7E
:10CDB0000D5A501C35EE635A3BEE66CAA4EEAC6ABF
:10CDC000E5EE0C6A75EEA55A7AEEAFAA95EEA66A64
:10CDD000E6EEAA7A3FEE0AAAD5EE866AE6EE0A7A6F
:10CDE0007EEEA99A95EEA66AE6EEA97ADDED02BA84
:10CDF0009DED03BADDED043A9DED054A9DED06DAA1
:10CE0000DDED074ADDED08CA3BEE899AD5EE866A6C
:10CE1000E6EE097A3BEE088A95EEA66AE6EE887A97
:10CE200033EE800AD5EE866AE6EE007A70EE840A6A
:10CE300095EEA66AE6EEA07A31EE0D1AD5EE866A78
:10CE4000E6EE017A71EEA41A95EEA66AE6EEA17AF4
:10CE500032EE2C2AD5EE866AE6EE027A72EEAD2A22
:10CE600095EEA66AE6EEA27ADDED016A36EE833A29
:10CE7000E3EE067A78EEA77A46ED017A7FF42EAFDC
:10CE8000DDED0D8ACDED0FAA8DED12AACDED159A2F
:10CE90008DED189A8DED1B8A8DED1E0ACDED210AC0
:10CEA0008DED241ACDED271A8DED2A2ACDED2D2AF0
:10CEB0008DED303A2F98DDF8C0B084ED137A2C99BF
:10CEC000C0F800B0299A269B239E2098DDF8B4E094
:10CED000DDF8A8A0DDF89C90DDF890C0DDF884B006
:10CEE000C1F800E0C2F800A01D99C3F800901A9A9A
:10CEF000C6F800C0179BC0F800B0149E1198DDF86A
:10CF000060C0DDF878A0DDF86C90DDF854E0DDF865
:10CF100048B0C1F800A0C2F80090C3F800C0C6F83D
:10CF200000E0C0F800B00E9B0F99196004F58C7AF0
:10CF30005146144A9DED0B0ADDED0A0A9DED0C1ACF
:10CF400020460823FFF730FADDED09CA94ED217A77
:10CF5000B6EE00EAF4EE4ECAF1EE10FAB8BFB0EE4B
:10CF60006CEA7EEE47FA51468FEEA8FA0DF1400CBE
:10CF700004F1880A002604F1800951E088A303081F
:10CF80000000804440B80308000000005FED023A52
:10CF90009346BBEC010A91ED004A03ED010A94EEC1
:10CFA000230A0236C9F1800A00EE906A80EE281A40
:10CFB000A2441846924443F808ACC9F1800AA2443E
:10CFC000D344083102F1080AB8EEE0DAF6EE001AAE
:10CFD0006EEE0D4A11EE10CAF4EEE14AF1EE10FACF
:10CFE000BEBFF7EE001AB0EE001AE4EEC11A40F828
:10CFF0000CCB92ED012AA8BF5FED1D1A51ED01CABD
:10D0000040F808BCF0EE422ADCEEA12A0C2E03F117
:10D01000180C00ED012A82EEA83A83ED033A45D0C0
:10D0200001360EEE906AF8EEEEDAB6EE006A2EEEFB
:10D030002D5A5246B4EEC65AF1EE10FABEBFB7EE04
:10D04000006AF0EE00CAA5EE6C6A06F1010BC9F1A8
:10D050008000F2EC01AAA8BF1FED356AB1EC01CA4D
:10D060004CED01AAB0EE6AAA9CEE06AA20445044F8
:10D0700005EE90BACAEE28BA63464CF8080CF8EEF2
:10D08000E59AB6EE00BA2EEE299A1BEE90CAB4EEDF
:10D09000CB9AF1EE10FA43F80CCBBFF677AFB0EEB7
:10D0A000008AF7EE003AE9EE483A71E7B8F1000F6E
:10D0B00000F0D2808A4E9DED10BADDED13AA9DEDF1
:10D0C00016AADDED199A9DED1C9ADDED1F8ADDEDA6
:10D0D00022BA9DED25CADDED28CA9DED2BDADDEDE6
:10D0E0002EDADDED31EA9DED0F0ADDED120A9DED40
:10D0F000151ADDED181A9DED1B2ADDED1E2A9DED9A
:10D10000213ADDED243A9DED274ADDED2A4A9DEDD9
:10D110002D5ADDED305A06F10408B0EE4FEAD4ED99
:10D12000207A9FED706A37EE0E7AB7EE00FA77EE4E
:10D1300027FAB6EE008AF4EECFFAF1EE10FAA8BFA5
:10D140007FEECFFADFED687AC4ED20FA6FEE866AE3
:10D1500030EE0B6AFDEEE6FA3AEE011A1FEE909AF7
:10D160004FEA8903F2184344B8EEEF0A92ED00FA51
:10D17000D3ED00FA76EEC06A7FEECFFABFEE000A7A
:10D18000A6EEAFFA013D6B1C7AEEA06A7FEE0F0AA5
:10D1900079EEA11A20EE888A39EE022AA0EE880ADA
:10D1A000E8EE067A90EE808AE6EE807A90EE880AC3
:10D1B000E1EE087A90EE808AE1EE807A90EE880ABD
:10D1C000E2EE087A78EEA22A90EE808AE2EE807A89
:10D1D0003BEE833A90EE880AE3EE087A7CEE233A3F
:10D1E00090EE808AE3EE807A3CEE844A90EE880AE4
:10D1F000E4EE087A7DEE244A90EE808AE4EE807AAE
:10D200003DEE855A90EE880AE5EE087A7EEEA55A44
:10D21000B0EE40FAE5EE8F7AB0EE460AF0EE660A1E
:10D22000E7EC017A7FF47BAF8DED0F6ACDED126AEA
:10D230008DED151ACDED181A8DED1B2ACDED1E2A98
:10D240008DED213ACDED243A8DED274ACDED2A4AD8
:10D250008DED2D5ACDED305A2F982C99299A269B79
:10D260009DED27BADDF8C090DDF8B480DDF8A8C0E8
:10D2700084ED217A239FC0F80090209EC1F80080A1
:10D28000DDED24AAC2F800C01D9D83ED00BA1A98F6
:10D290001799149A119BDDF884B0DDF878A0DDF8B9
:10D2A0006C90DDF86080DDF854C0129CC7ED00AAD8
:10D2B000C6F800B0C5F800A0C0F80090C1F8008022
:10D2C000C2F800C01C600E9F0F9E3E6033B0BDECE4
:10D2D000108BBDE8F08F00239E46FFF7C4B900BF56
:10D2E00088A303080000804400000000F0B4204A36
:10D2F000204F214E214D8263002300224FF07C54A9
:10D300001F49C763066402614261C0F8A820C0F8E3
:10D31000AC208361C361036243628362C3620363BF
:10D32000436383644364C36403654365C365036601
:10D330008365436683660367C366C0F88030C3674E
:10D34000C0F88430C0F88830C0F89C30C0F89830FD
:10D35000C0F88C50C0F89040C0F8A030C0F8A4309D
:10D36000C0F8B030C0F8B430C0F89410F0BC7047CA
:10D3700022BA003D0AD7233CCAAA7F3F61C0AD3E16
:10D38000013F473F704700BF2DE9F00FD1ED016A23
:10D390009FEDE97A2DED108BF2EE027A36EEE70A78
:10D3A00084B0B4EEC70AF1EE10FA8846019200F19B
:10D3B0007D87DFEDE20AB4EEE00AF1EE10FA40F309
:10D3C00025830022FF21D8ED045ADFF8ACB3DC4CF2
:10D3D0009FEDDC5AB1EE006A65EE86BAF7EE00CA40
:10D3E0000BEB810504EB82063BEEEC9A95ED00DA3F
:10D3F00096ED008ACDED03CAF4EEECBAF1EE10FA28
:10D400006DEE088AB4EEEC9AC8BFF0EE6CBAF1EE9D
:10D4100010FA28EE85CA8DED029A40F34B87DFEDB6
:10D42000D8AA98ED02AA9FEDC8BA9FEDC8EAD8ED38
:10D4300003DADFEDD4EADFF8089398F800709FED87
:10D44000D7FA0097F0EE6A0AEAEE0B0AC7F3400239
:10D45000EDEE8EAAFDEEE07ABDEEEA7AB8EEE71ABE
:10D46000F8EEC71A30EEC12A7AEEE12A22EE2E3A01
:10D4700017EE901AFDEEC33A22EEAE4A13EE905A22
:10D48000F7EE008A0BEB810A09EB850CF0EE004AFF
:10D49000BFEE005AA5EEA45A009D9CED006A9AEDDD
:10D4A00000DADFEDAB9ADFEDABFADFEDAB6A98EDBA
:10D4B000050AB1EE4CEAF3EE005AB0EE689ABDEE02
:10D4C000C4BAAEEE259AB1EE008A17EE104A6DEEA0
:10D4D00006EA6CEE081A1BEE107A0BEB840621EEBE
:10D4E000AE2AB4EE4F5A09EB8701F1EE10FAD6EDF1
:10D4F000000AD1ED007AB4EE4F9A4CBFB0EE4F1A4D
:10D50000B0EE451AF0EE49AAF1EE10FAB5EE007A47
:10D51000B4EEE82A48BFF0EE4FAA3AEE07AAF1EEC1
:10D5200010FA60EEA72AC8BFB0EE682A15F001060F
:10D530002AEE293A61EE2A3A62EEAFFAC6EE8C4A3A
:10D540000ED030244FF4907704614761F1EE0C9ACD
:10D55000F0EE086AE0EE296A80ED0BFAC0ED076A8A
:10D5600090ED0DFA1C99B0EE4F4A90EE2D4A4C1EEC
:10D5700000EE101AB8EE408A84EE085A002900F036
:10D580001181019E25460769002F00F0B182791EA6
:10D590000161002900F0D482D0ED07AAC0ED06AAEF
:10D5A000002A40F0A0829FED6D9A2AEE89BAD0ED54
:10D5B00008EADFED6B7A7AEEEE0AE0EEA7EA3AEEE1
:10D5C000EE7AC0ED08EA77EE0BDAF5EEC0DAF1EEAE
:10D5D00010FAC0F294824769002F00F07982791E18
:10D5E000DFED608A9FED6D9A4161002908BFB0EEC2
:10D5F000689A80ED0A9AB7EE00DADFED68AA90ED3E
:10D6000009BAD0ED0B7ADFED56EA002A18BFB0EE6A
:10D610006ADAB2EE04AABFEE000A7DEE4B0AA7EE6C
:10D620008A0AA0EEAEBAB5EEC00AF1EE10FA80EDAD
:10D6300009BAC0F276829FED4CDADFED595A9FEDC0
:10D64000446A6BEE0D8AB7EE009AABEEA89A70EEC4
:10D6500025AA2AEE86BAABEE2C9A6CEE097AF5EE84
:10D66000C07AF1EE10FA00F15982DFED40EAF4EEF3
:10D670006E7AF1EE10FAC8BFF0EE6E7A002A00F072
:10D68000DA81F6EE006AF4EE667AF1EE10FAD0ED89
:10D69000139ADFED375A374FA8BFF0EE667A37EEB0
:10D6A000A90AB7EE00DAB4EECD0AF1EE10FAA8BF7F
:10D6B00030EE4D0A07F5806920EE259A80ED130AB9
:10D6C000FDEEC98A3FEE05FA18EE901A890001F1C5
:10D6D000040C0CEB090A894499ED006A9AED00BA32
:10D6E000F8EEE8AABC443944D1ED007A9CED001A6A
:10D6F00079EE6AEA7BEE460A71EE672AAEEEA06A20
:10D70000EEEEA27A2FEE064A6FEE277A80ED0B4AF4
:10D71000E3EE2D7A013D6F1CD0ED0CDA37EEED7A99
:10D72000E2EE07DAC0ED0CDAE6EC01DA7FF42BAFBB
:10D73000009E06F0010635E0000000C30000FE4236
:10D74000D0EB0308519696390000D8420000A04261
:10D750000AD7A33D0080BB446F12833A5839343D49
:10D760005555553ECDCC4CBF9A99D93FCDCCCC3EEA
:10D770000000804488A30308CCE70308C3F5A83E53
:10D780000000004300008043D7573941DB0F494078
:10D79000CDCC4C3EB1E47F3F5555653F00000000C5
:10D7A0003333333FF6EE00BAF0EE6BCAE3EEABCAAA
:10D7B00080ED0DFA2CEEAC3AB3EE082A63EE03FAD4
:10D7C000F0EE003A2CEEAFFA5FED146A6FEE029ABB
:10D7D00073EEEC4AECEEEB9A2CEEA40A23EE29DA77
:10D7E000B8EE085AACEEABDA7DEE665AE0EE256A8A
:10D7F000F4EEC56AF1EE10FA00F10985F0EE088A40
:10D80000F4EEE86AF1EE10FA00F35F85F3EE0BAA8E
:10D81000B0EE6A6AB2EE02BAA6EEA66A66EE8BEACD
:10D8200066EE860AE6EEAEAAB7EE001AC0EEAA7A57
:10D83000C1EE272A1C9FD0ED2C7A90ED2D7A3DEE7B
:10D84000674A72EEC7DA84EE08AACDEE88BA002FD6
:10D8500000F0A181019D04F0030177EE8A7AF5ECD6
:10D8600001CA27EEAC2AB8EE083AB4EEC32AF1EEAC
:10D8700010FA40F1D084BFEE000A37EE2B7A671E13
:10D8800027EE005A05ED015A002C00F08481002992
:10D890004BD001292FD0022916D077EE8A7AB5EC29
:10D8A00001DA67EE8D5AB8EE089AF4EEC95AF1EE35
:10D8B00010FA40F1BB84BFEE001A37EE2B7A013F1D
:10D8C00067EE012A45ED012A77EE8A7AB5EC014A26
:10D8D00067EE84DAF8EE08CAF4EEECDAF1EE10FA4C
:10D8E00040F1D984FFEE009A37EE2B7A013F67EEC4
:10D8F000294A45ED014A77EE8A7AB5EC010A27EE0E
:10D9000080DAB8EE085AB4EEC5DAF1EE10FA40F15A
:10D91000B784FFEE000A013F37EE2B7A791C67EEE1
:10D9200020EA45ED01EA00F03681AA4677EE8ADA70
:10D93000FAEC01EA6DEEAEFAB8EE089AF4EEC9FA26
:10D94000F1EE10FA00F11981B0EE086AF4EEC6FAB1
:10D95000F1EE10FA00F32984B3EE0BFAF0EE4F6A01
:10D96000B2EE02DAEFEEAF6A2FEE8D4A2FEEA60A84
:10D97000AFEE84FAC0EE0F7AD146013F37EE2B7A34
:10D980003DEE8A2A67EE274AB8EE08BA4AED014A08
:10D99000B9EC015A22EE053AB4EECB3AF1EE10FAA8
:10D9A00040F1EE80FFEE000A77EE2B2A72EE0ADAE3
:10D9B00062EEA03AF8EE08EA49ED013ADAED01FA32
:10D9C0002DEEAF9A0AF1080CB4EEEE9AF1EE10FAD1
:10D9D00040F1C880FFEE004A32EEAB7A7DEE8A7AE3
:10D9E00027EE242AB8EE085A0CED012A9AED023AE5
:10D9F00027EE83BA0AF10C05B4EEC5BAF1EE10FABF
:10DA000040F1A580FFEE000A033F85E71FEDA41A51
:10DA10005FEDA41A30EE012AFDEEC22AB8EEE23A1A
:10DA200012EE901A72EE433A23EEA14AFDEEC44A7A
:10DA300014EE902AC7E4F7EE000AB0EE601AAFEEDB
:10DA4000A71A5FEDAF2A1FEDAF7A90ED0A4A1FEDDE
:10DA5000B0AAD0ED116AD0ED129A80EE810A27EEBD
:10DA6000A2DAF0EE60AAA7EE8D7AF0EE6D5A27EEFC
:10DA7000879AE4EE4A5AE9EE00AA26EEC06AE9EE79
:10DA800009AAA4EEA56AC0EEAAEAA9EE666AF0EEBB
:10DA9000667A36EE69BAB0EE691A6EEE8B0A80EDE0
:10DAA0000F0AE9EE207AC0ED10EAA9EE271AF0EE8F
:10DAB000672AB0EE417AE9EE202AA9EE277A80EDB6
:10DAC0000E9A80ED0B1A80ED127AC0ED112A1FE636
:10DAD00090ED0A0A1FEDD16A1FEDD0DA60EE065A0A
